:030000000209648E
:0C096400787FE4F6D8FD758107020800DA
:0708FE001209407F0A7E0091
:10090500E4FDFCC3ED9FEC9E5015E4FBFA0BBB0028
:0F091500010ABA04F8BBFBF50DBD00010C80E42C
:0109240022B0
:100940008F90C280C281D2827F017E00120905C2CF
:02095000822201
:100952008F90D280C281D2827F017E00120905C2AD
:020962008222EF
:100925007F381208FE7F0F1208FE7F011208FE7F36
:0B093500811209407F0A7E00020905C4
:10083A00D2A3D2A2D2A1D2A0C2B3C2B2C2B1C2B012
:10084A0020A0057F3112095220A1057F34120952D6
:10085A0020A2057F3712095220A3057F2A120952C6
:01086A00226B
:10086B00D2A3D2A2D2A1D2A0C2B3C2B2C2B1C2B0E1
:10087B0020A0057F3212095220A1057F35120952A3
:10088B0020A2057F3812095220A3057F301209528E
:01089B00223A
:10089C00D2A3D2A2D2A1D2A0C2B3C2B2C2B1C2B0B0
:1008AC0020A0057F3312095220A1057F3612095270
:1008BC0020A2057F3912095220A3057F2312095269
:0108CC002209
:1008CD00D2A3D2A2D2A1D2A0C2B3C2B2C2B1C2B07F
:1008DD0020A0057F4112095220A1057F4212095225
:1008ED0020A2057F4312095220A3057F441209520D
:0108FD0022D8
:100800001209257F1E7E00120905D2B3D2B2D2B1E1
:10081000D2B0C2A3C2A2C2A1C2A020B00512083A9F
:1008200080E120B10512086B80D920B20512089C26
:0A08300080D120B3CE1208CD80C99C
:00000001FF
